:020000040000FA
:100000000C9462000C948A000C948A000C948A0070
:100010000C948A000C948A000C948A000C948A0038
:100020000C948A000C948A000C948A000C948A0028
:100030000C948A000C948A000C948A000C948A0018
:100040000C9477060C948A000C9445060C941F06B9
:100050000C948A000C948A000C948A000C948A00F8
:100060000C94C1060C948A000000000024002700B4
:100070002A0000000000250028002B0000000000DE
:1000800023002600290004040404040404040202DA
:100090000202020203030303030301020408102007
:1000A0004080010204081020010204081020000012
:1000B0000008000201000003040700000000000027
:1000C0000000E00711241FBECFEFD8E0DEBFCDBF98
:1000D00011E0A0E0B1E0E6E2FBE102C005900D9284
:1000E000AA35B107D9F722E0AAE5B1E001C01D9217
:1000F000AB3CB207E1F710E0C2E6D0E004C02197C4
:10010000FE010E94B30AC136D107C9F70E94360822
:100110000C94910D0C9400008091C9029091CA0238
:100120008230910538F0880F991F880F991F059725
:100130000197F1F7089591E09093F90180931B02E4
:100140001092FA0110921C0208959091CC018091B6
:10015000CB012FEF3FEF981748F4E92FF0E0E5557A
:10016000FE4F208130E09F5F9093CC01C90108953C
:100170009091CC018091CB012FEF3FEF981748F47D
:10018000E92FF0E0E555FE4F208130E09F5F90932E
:10019000CC01C901089508950895AF92BF92CF92FE
:1001A000DF92EF92FF920F931F93CF93DF936C0137
:1001B0007B018B01040F151FEB015E01AE18BF0818
:1001C000C017D10759F06991D601ED91FC910190CA
:1001D000F081E02DC6010995892B79F7C501DF91E2
:1001E000CF911F910F91FF90EF90DF90CF90BF9034
:1001F000AF900895FC01538D448D252F30E0842F5E
:1002000090E0821B930B541710F0CF96089501973E
:100210000895FC01918D828D981761F0A28DAE0F2B
:10022000BF2FB11D5D968C91928D9F5F9F73928FB2
:1002300090E008958FEF9FEF0895FC01918D828DDE
:10024000981731F0828DE80FF11D858D90E00895AB
:100250008FEF9FEF0895FC01918D228D892F90E003
:10026000805C9F4F821B91098F73992708958DE1C0
:1002700092E00E942B0121E0892B09F420E0822FDB
:10028000089580E090E0892B29F00E9437018111C8
:100290000C9400000895FC01A48DA80FB92FB11D86
:1002A000A35ABF4F2C91848D90E001968F739927AC
:1002B000848FA689B7892C93A089B1898C9183708A
:1002C00080648C93938D848D981306C00288F38983
:1002D000E02D80818F7D80830895EF92FF920F93B0
:1002E0001F93CF93DF93EC0181E0888F9B8D8C8DE2
:1002F00098131AC0E889F989808185FF15C09FB7D6
:10030000F894EE89FF896083E889F9898081837098
:10031000806480839FBF81E090E0DF91CF911F9147
:100320000F91FF90EF900895F62E0B8D10E00F5F68
:100330001F4F0F731127E02E8C8D8E110CC00FB63E
:1003400007FCFACFE889F989808185FFF5CFCE01D6
:100350000E944B01F1CFEB8DEC0FFD2FF11DE35A05
:10036000FF4FF0829FB7F8940B8FEA89FB89808159
:100370008062CFCFCF93DF93EC01888D8823B9F0D3
:10038000AA89BB89E889F9898C9185FD03C08081A0
:1003900086FD0DC00FB607FCF7CF8C9185FFF2CF1D
:1003A000808185FFEDCFCE010E944B01E9CFDF9127
:1003B000CF910895833081F028F4813099F0823014
:1003C000A9F008958730A9F08830C9F08430B1F4DD
:1003D000809180008F7D03C0809180008F77809313
:1003E0008000089584B58F7784BD089584B58F7D8E
:1003F000FBCF8091B0008F778093B00008958091FB
:10040000B0008F7DF9CF1F93CF93DF93282F30E07B
:10041000F901E255FF4F8491F901E656FF4FD4915F
:10042000F901EA57FF4FC491CC23A9F0162F81118F
:100430000E94DA01EC2FF0E0EE0FFF1FEE58FF4FA5
:10044000A591B4918FB7F894EC91111108C0D09593
:10045000DE23DC938FBFDF91CF911F910895DE2BB8
:10046000F8CFCF93DF9390E0FC01E656FF4F249145
:100470008A579F4FFC0184918823C9F090E0880F30
:10048000991FFC01E859FF4FA591B491FC01EE586A
:10049000FF4FC591D49161110DC09FB7F8948C9115
:1004A000209582238C938881282328839FBFDF9106
:1004B000CF910895623051F49FB7F8943C91822F08
:1004C000809583238C93E8812E2BEFCF8FB7F89400
:1004D000EC912E2B2C938FBFEACFCF93DF93C6ECFA
:1004E000D2E061E089810E9431020E948C0060E0CC
:1004F00088810E9431020E948C0060E089810E9404
:100500003102DF91CF910C948C000F931F93CF9306
:10051000DF93D82FC8E061E08091C6020E943102CB
:100520000E948C000D2F10E060E0D0FF61E0809110
:10053000C7020E9431020E948C0060E08091C602D6
:100540000E9431020E948C0015950795D02FC15052
:1005500011F761E08091C6020E94310260E0809153
:10056000C7020E9431020E948C0060E08091C602A6
:100570000E9431020E948C002091C70230E0F901F4
:10058000E255FF4F8491F901E656FF4FD491F901EE
:10059000EA57FF4FC491CC2339F181110E94DA014F
:1005A000EC2FF0E0EE0FFF1FE458FF4FA591B49140
:1005B000EC91ED23C1E009F4C0E0C11105C061E098
:1005C0008091C7020E9431020E948C0061E08091FC
:1005D000C6020E9431020E948C008C2F8170DF9134
:1005E000CF911F910F910895C0E0E9CF61E0809114
:1005F000C7020E9431020C948C003FB7F89480919E
:10060000A3019091A401A091A501B091A60126B5E6
:10061000A89B05C02F3F19F00196A11DB11D3FBF3A
:10062000BA2FA92F982F8827BC01CD01620F711D09
:10063000811D911D42E0660F771F881F991F4A9503
:10064000D1F7089520917B01260F3327331F2132E4
:100650003105ECF42091F301FC0190E080E02430BE
:1006600069F082E00895A0917B012191AC01455A87
:100670005E4FA40FB52FB11D2C930196861798F3EA
:1006800080917B01680F60937B0180E0089581E099
:1006900008951092F30181E08093F2011092CD0150
:1006A00061E082E10E94030261E083E10E940302B3
:1006B000E9EBF0E080818E7F808380818D7F808375
:1006C00088E48093B80085E48093BC000895CF93BC
:1006D000DF9391E090935A018823B9F0C091B8005C
:1006E000D091BA008091BC008A7B8093BC0060E00E
:1006F00082E10E94030260E083E10E9403020E9403
:100700004903D093BA00C093B800DF91CF91089508
:10071000CF92DF92EF92FF920F931F93CF93DF93CD
:10072000D0911C0281E0D13208F09CC0C0911B0224
:100730000E94FD026B017C018091F30181116CC06C
:1007400082E08093F30181E08093F2018FEF809348
:10075000F1011092F001D093EF01ABEFB1E0EFECBB
:10076000F1E080E0D8138DC01092CE018091CE01CF
:10077000CC0FC82BC093CE018091CD01813009F000
:1007800084C01092CD010E94FD026B017C0180911A
:10079000CE018093BB008091F5019091F601A0916C
:1007A000F701B091F801892B8A2B8B2BA1F00E94C5
:1007B000FD020091F5011091F6012091F7013091B1
:1007C000F8016C197D098E099F090617170728077C
:1007D000390708F442C08091BC0083FDD8CF85EC76
:1007E0008093BC000E94FD026B017C018091F301AB
:1007F000823009F44CC08091F1018F3F09F469C047
:100800008091F101803209F466C08091F10180335A
:1008100009F463C084E026C08091F5019091F6014F
:10082000A091F701B091F801892B8A2B8B2B09F449
:1008300083CF0E94FD020091F5011091F6012091F5
:10084000F7013091F8016C197D098E099F0906178F
:1008500017072807390708F06FCF8091F4010E942D
:10086000670385E01092FA0110921C021092F901C0
:10087000DF91CF911F910F91FF90EF90DF90CF907C
:1008800008959D9191938F5F6DCF85EEA9CF809153
:10089000F5019091F601A091F701B091F801892B33
:1008A0008A2B8B2B09F4A2CF0E94FD020091F50147
:1008B0001091F6012091F7013091F8016C197D0932
:1008C0008E099F09061717072807390708F08ECFEA
:1008D000C4CF80E0C7CF82E0C5CF83E0C3CF089507
:1008E000E091CC018091CB01E81730F4F0E0E555C0
:1008F000FE4F808190E008958FEF9FEF08958091E3
:10090000CB019091CC01891B990B0895CF92DF9276
:10091000EF92FF920F931F93CF93DF937C01CB0154
:100920008A012091F901222389F0EB016B01C40EA9
:10093000D51ECC15DD0569F06991D701ED91FC91CB
:100940000190F081E02DC7010995F3CF642F0E943B
:100950002203C801DF91CF911F910F91FF90EF907B
:10096000DF90CF900895CF93DF931F92CDB7DEB77E
:1009700069832091F9012223F9F020911C02203291
:1009800058F021E030E0FC013383228390E080E0E6
:100990000F90DF91CF9108958091FA01E82FF0E058
:1009A000E550FE4F998190838F5F8093FA01809389
:1009B0001C0281E090E0ECCF61E0CE0101960E9444
:1009C0002203F7CF682F8AEB92E00C94B304CF9305
:1009D000DF93C82FD62F88E60E949B008FE090E01F
:1009E000D11102C08EE090E00E94E2046C2F8AEBED
:1009F00092E00E94B304DF91CF910C94880390E0C1
:100A000080E00895CF92DF92EF92FF920F931F93B1
:100A1000CF93DF93D82F0E94FD026B017C01809160
:100A2000F301811165C0CD2F81E08093F3018093A4
:100A3000F2019FEF9093F1011092F0019D0F9093BE
:100A4000EF018093CE018091CE01806D8093CE0125
:100A50008091CD01813009F07FC01092CD010E94BC
:100A6000FD026B017C018091CE018093BB008091DF
:100A7000F5019091F601A091F701B091F801892B51
:100A80008A2B8B2BA1F00E94FD020091F5011091A1
:100A9000F6012091F7013091F8016C197D098E095A
:100AA0009F09061717072807390708F442C08091E5
:100AB000BC0083FDD8CF85EC8093BC000E94FD0272
:100AC0006B017C018091F301813009F447C0809172
:100AD000F0018D1710F4C091F001AFECB1E0EBEA3A
:100AE000F1E080E08C1751F19D9191938F5FFACFE7
:100AF0008091F5019091F601A091F701B091F80174
:100B0000892B8A2B8B2B09F48ACF0E94FD0200913E
:100B1000F5011091F6012091F7013091F8016C195F
:100B20007D098E099F09061717072807390708F05E
:100B300076CF8091F4010E946703C0E01092CC014F
:100B4000C093CB018C2FDF91CF911F910F91FF901C
:100B5000EF90DF90CF90089585EEAECF8091F501B4
:100B60009091F601A091F701B091F801892B8A2BA1
:100B70008B2B09F4A7CF0E94FD020091F501109183
:100B8000F6012091F7013091F8016C197D098E0969
:100B90009F09061717072807390708F093CFC9CF11
:100BA000CF93C82F88E60E949B008FE090E0C11190
:100BB00002C08EE090E00E94E2040E94880381E07F
:100BC00090E00E9402050E94B800CF91089585ED43
:100BD0008093BC008091F5019091F601A091F701FE
:100BE000B091F8010796A11DB11D23E0B695A79518
:100BF000979587952A95D1F72091BC0024FD03C0D5
:100C00001092F30108954091F5015091F601609121
:100C1000F7017091F801452B462B472B69F300979C
:100C2000A105B10541F025E32A95F1F700000197F0
:100C3000A109B109E1CF8091F4010C9467031F92DF
:100C40000F920FB60F9211242F933F934F935F9300
:100C50006F937F938F939F93AF93BF93EF93FF9384
:100C60008DE192E00E944B01FF91EF91BF91AF9116
:100C70009F918F917F916F915F914F913F912F91B4
:100C80000F900FBE0F901F9018951F920F920FB6E6
:100C90000F9211242F938F939F93EF93FF93E091E3
:100CA0002D02F0912E028081E0913302F091340206
:100CB00082FD1BC09081809136028F5F8F732091DF
:100CC0003702821741F0E0913602F0E0E35EFD4F1B
:100CD000958F80933602FF91EF919F918F912F9185
:100CE0000F900FBE0F901F9018958081F4CF1F9228
:100CF0000F920FB60F9211242F933F938F939F93D0
:100D0000AF93BF9380919F019091A001A091A10109
:100D1000B091A20130919E0123E0230F2D3758F5A9
:100D20000196A11DB11D20939E0180939F01909378
:100D3000A001A093A101B093A2018091A301909181
:100D4000A401A091A501B091A6010196A11DB11D1C
:100D50008093A3019093A401A093A501B093A60151
:100D6000BF91AF919F918F913F912F910F900FBEA7
:100D70000F901F90189526E8230F0296A11DB11D14
:100D8000D2CF1F920F920FB60F9211242F933F9341
:100D90004F935F936F937F938F939F93AF93BF9383
:100DA000EF93FF938091B900887F803609F44AC0A1
:100DB000F0F5883209F4A7C018F5803109F49BC01A
:100DC000B8F4882309F4F9C0883009F494C0FF917D
:100DD000EF91BF91AF919F918F917F916F915F91B3
:100DE0004F913F912F910F900FBE0F901F9018952C
:100DF000883109F488C0803251F78093F10114C022
:100E0000803409F49DC040F48033B9F38833F9F697
:100E10008093F10185ECB0C0803509F485C0883538
:100E200009F496C0883499F60E94E705D0CF883936
:100E300009F48CC038F5883729F050F4883611F061
:100E4000803729F683E08093F30110929D0157C00B
:100E5000883809F47BC0803919F0803809F0B7CFA1
:100E600080919D01803208F071C0E0919D0181E088
:100E70008E0F80939D018091BB00F0E0E358FE4F00
:100E800080833DC0803B39F0E0F4803A09F479C0BA
:100E9000883A09F09CCF84E08093F30110927C01A2
:100EA00010927B01E091A901F091AA01099580912E
:100EB0007B0181110FC081E080937B0110925B0167
:100EC00009C0803C09F4A6CF883C09F4A3CF883B35
:100ED00009F07DCFE0917C0181E08E0F80937C0151
:100EE000F0E0E55AFE4F80818093BB0090917C0139
:100EF00080917B0129C08091CE018093BB0085EC5D
:100F00008093BC0064CF9091F0018091EF0198171D
:100F100058F5E091F00181E08E0F8093F001F0E050
:100F2000E153FE4F8081E9CFE091F00181E08E0F27
:100F30008093F0018091BB00F0E0E153FE4F80838D
:100F40009091F0018091EF019817C8F285E8D8CF11
:100F5000E091F00181E08E0F8093F0018091BB0061
:100F6000F0E0E153FE4F80838091F20181115CCF6C
:100F700081E08093CD0184EA8093BC001092F3015C
:100F800026CF85EC8093BC001092F30180919D01E7
:100F9000803230F4E0919D01F0E0E358FE4F108282
:100FA00060919D0170E0E091A701F091A8018DE7AB
:100FB00091E0099510929D010ACF1092F10134CF72
:100FC000CF93DF93EDE1F2E01382128288EE93E09B
:100FD000A0E0B0E084839583A683B78324E131E069
:100FE0003183208325EC30E03587248724EC30E002
:100FF0003787268720EC30E0318B208B21EC30E0E6
:10100000338B228B22EC30E0358B248B26EC30E0C6
:10101000378B268B118E128E138E148EEAEBF2E034
:101020001382128284839583A683B78386E291E03C
:1010300091838083C6ECD2E082E0888383E0898359
:1010400084E690E09C838B8360E082E00E94310222
:1010500060E089810E94310260E088810E94030281
:1010600060E08981DF91CF910C940302CF93DF93ED
:10107000CDB7DEB7C258D1090FB6F894DEBF0FBEA8
:10108000CDBF789484B5826084BD84B5816084BD11
:1010900085B5826085BD85B5816085BD80916E0016
:1010A000816080936E001092810080918100826047
:1010B0008093810080918100816080938100809184
:1010C00080008160809380008091B1008460809373
:1010D000B1008091B00081608093B00080917A006F
:1010E000846080937A0080917A00826080937A0095
:1010F00080917A00816080937A0080917A00806884
:1011000080937A001092C100E0912D02F0912E029E
:1011100082E08083E0912902F0912A021082E0911E
:101120002B02F0912C0280E1808310923502E09135
:101130003102F091320286E08083E0912F02F0913B
:101140003002808180618083E0912F02F091300233
:10115000808188608083E0912F02F091300280814D
:1011600080688083E0912F02F091300280818F7D32
:1011700080831092CC011092CB011092FA01109250
:101180001C020E9449038BEC90E09093AA0180938B
:10119000A9018CEC90E09093A8018093A70162E0F4
:1011A00084E00E94310262E085E00E94310262E048
:1011B00086E00E94310261E087E00E94310260E037
:1011C00087E00E94030288E60E949B0081E090E095
:1011D0000E94E20460E08AEB92E00E94B3040E9465
:1011E000880388E60E949B0082E090E00E94E2046F
:1011F0000E94880381E090E00E9402050E94B800EE
:1012000012E186FD12E788E60E949B0082E090E0F2
:101210000E94E204612F8AEB92E00E94B3040E94D4
:10122000880388E60E949B0090E080E00E94E20430
:1012300065E58AEB92E00E94B3040E94880381E096
:101240000E94D00561E08F770E94E70488E60E9443
:101250009B008BE090E00E94E20481E890E00E9415
:10126000E20462E18AEB92E00E94B30461E08AEB5F
:1012700092E00E94B3040E94880380E00E94D0059F
:1012800060E086600E94E7048FE08093C8029E01C0
:101290002F5F3F4F7901AAE0AA2EB12CBAE06B2E46
:1012A00014E3C12E11E0D12E00E0802E00E0902E3C
:1012B00088E60E949B0090E080E00E94E2040E9489
:1012C000880387E090E00E9402050E94B8000E9417
:1012D000B8009C01E4E035952795EA95E1F72F7079
:1012E0003327922F990F990F122F191B110F180FD7
:1012F0000E94B8009C01F4E035952795FA95E1F736
:101300002F703327922F990F990F022F091B000F6F
:10131000080F0E94B8000E94B8000E94B8000E9406
:10132000B800812F90E034E6039F800D911D1124B9
:101330009E012B5F3F4FF901B5010E949F0ADC011E
:10134000A050BF4F8C918293CB01EE16FF0609F09F
:10135000EEC02D5F3F4F8FEF4191DF011197982F26
:101360009078942B9C93880FE217F307A9F70E94BB
:10137000F60280E40E9485020E946D020E94F6023D
:1013800080EC0E94850289810E9485028A810E94E8
:1013900085028B810E9485028C810E9485020E94B9
:1013A0006D020E94F6028091C8028F7080580E94E0
:1013B00085020E946D0288E60E949B008BE090E00F
:1013C0000E94E2040E94880383E090E00E940205EC
:1013D0000E94B8008C0182958770902F9F70869D27
:1013E000900D1124CF57DF4F9883C158D0400E94F1
:1013F000B80063E0159507956A95E1F700719C01C7
:1014000035952795359527952072022B2224239414
:10141000AC014074552786FF212C282F22952F7070
:10142000382F3F70732E452B09F483C055E09695F5
:1014300087955A95E1F7182F11702170269D700C31
:1014400011240E94B8009C01359527952074202B0B
:10145000CE57DF4F2883C258D040332433949C01A9
:101460002074332786FF312C082F0F70232B29F48B
:1014700082958370869D000D112480E00E94D00526
:10148000482E81E00E94D005582E61E08D7F0E9499
:10149000E70451FA552450F81F925F9241FA442410
:1014A00040F81F924F921F92CE57DF4F8881C2584B
:1014B000D0408F931F921F931F922F921F92CF574E
:1014C000DF4F9881C158D0409F931F927F921F9207
:1014D0000F931F923F92DF92CF92FF92EF920E9462
:1014E000B90AF70101900020E9F73197AF014E19D1
:1014F0005F09B7018DE192E00E94CD0042E050E02B
:1015000067E571E08DE192E00E94CD000FB6F8949E
:10151000DEBF0FBECDBF8114910409F4C9CE0E9475
:101520003701882309F4C4CE0E940000C1CE9F0178
:1015300002CF2370269D700C112410E082CFAA1BCD
:10154000BB1B51E107C0AA1FBB1FA617B70710F0AE
:10155000A61BB70B881F991F5A95A9F780959095E0
:10156000BC01CD010895EE0FFF1F0590F491E02D11
:101570000994AEE0B0E0EFEBFAE00C94680D0D8951
:101580001E8986E08C831A8309838FEF9FE79E83F1
:101590008D83AE01475E5F4F6F89788DCE010196D6
:1015A0000E94DC0A2F813885020F131FF801108278
:1015B0002E96E4E00C94840DABE0B0E0E2EEFAE0AD
:1015C0000C945A0D7C013B018A01FC0117821682A2
:1015D000838181FFC8C1CE0101965C01F70193812F
:1015E000F30193FD859193FF81913F01882309F4D5
:1015F00053C1853239F493FD859193FF81913F0169
:10160000853229F4B70190E00E94CC0CE7CF912CF1
:10161000212C312CFFE1F31538F08B3211F190F4CD
:10162000803209F1833229F137FC3CC020ED280FCC
:101630002A3050F536FE20C08AE0989E200D1124F5
:10164000922E06C08D3291F0803371F7689430F895
:10165000F30193FD859193FF81913F018111DACFD1
:1016600021C0689431F8689432F8F2CF689433F866
:10167000EFCF689434F8ECCFEAE02E9E200D1124D1
:10168000222E689435F8E4CF8E3229F436FC04C15A
:10169000689436F8DDCF8C3619F4689437F8D8CFD3
:1016A0008836B1F2982F9F7D95549330E0F08336C1
:1016B000A1F18337C1F1833509F063C02801F2E05D
:1016C0004F0E511CF801C080D180692D70E036FCAE
:1016D00002C06FEF7FEFC6010E94B60C4C01689408
:1016E00037F882010AC00C5F1F4FFFE3F98388249B
:1016F0008394912C6501E89437F833FE2DC0522C69
:101700008114910471F5552009F468CFB70180E286
:1017100090E00E94CC0C5A94F6CFF8018081898326
:101720000E5F1F4FE4CF2801F2E04F0E511CF8016D
:10173000C080D180692D70E036FC02C06FEF7FEF72
:10174000C6010E94C10C4C018201D5CFB70180E2D5
:1017500090E00E94CC0C2A942814190409F0B0F7E8
:10176000CECFF60137FC859137FE81916F01B7012D
:1017700090E00E94CC0C51105A94F1E08F1A91081D
:10178000BFCF843619F0893609F077C0F80137FEEB
:101790006BC060817181828193810C5F1F4FF32D3B
:1017A000FF763F2E97FF09C09095809570956195C3
:1017B0007F4F8F4F9F4F689437F82AE030E0A501A4
:1017C0000E94FC0CC82ECA188C2C432C36FE0CC070
:1017D000E89440F8C91440F434FE05C032FC03C05C
:1017E000F32DFE7E4F2E892C44FE95C0FE01EC0D9C
:1017F000F11D8081803309F087C0242D297E422E7F
:10180000842D8870582E43FC95C040FE8FC09C2CC0
:10181000821418F42C0C922C981844FE91C0B70135
:1018200080E390E00E94CC0C42FE09C088E790E083
:1018300041FE02C088E590E0B7010E94CC0CC914BB
:1018400008F48AC0CA94D12C9FEFC91AD90ACA0CCD
:10185000DB1CF60182916F01B70190E00E94CC0C75
:10186000AC14BD04B1F74FCF60817181072E000C1D
:10187000880B990B0E5F1F4F92CFD32CE894D4F8AE
:101880002AE030E0853739F1232D297FD22E8F369B
:1018900001F148F48835A9F0F701868197812B96EC
:1018A000E2E10C94760D803749F08837A9F7D4FE31
:1018B00002C06894D2F820E130E00DC06894D4F8FA
:1018C000F6CF34FE03C0822F8660D82E20E132E0AE
:1018D00002C028E030E0F801D7FE0FC060817181BE
:1018E000828193810C5F1F4FA5010E94FC0CC82EC2
:1018F000CA183D2CE89437F867CF6081718190E079
:1019000080E00E5F1F4FF0CF42FC02C0839478CF7F
:101910008394839475CF842D867809F471CFF6CFA4
:10192000B70180E290E00E94CC0C83948214C0F353
:10193000512C73CF522C5818821408F46ECFF8CF64
:10194000842D867809F47BCF8BE241FE80E247FC50
:101950008DE2B70190E071CFB70180E390E00E9483
:10196000CC0C9A946CCF8FEF9FEF99CFFC01059030
:10197000615070400110D8F7809590958E0F9F1F91
:101980000895FC016150704001900110D8F78095D6
:1019900090958E0F9F1F08950F931F93CF93DF9302
:1019A000182F092FEB018B8181FD09C01FEF0FEF6D
:1019B000812F902FDF91CF911F910F91089582FF7A
:1019C00014C02E813F818C819D81281739073CF4FA
:1019D000E881F981CF0101969983888310838E81F4
:1019E0009F8101969F838E83E3CFE885F985812FC0
:1019F0000995892BA1F3DACFFA01AA27283051F1F2
:101A0000203181F1E8946F936E7F6E5F7F4F8F4F2F
:101A10009F4FAF4FB1E03ED0B4E03CD0670F781F8E
:101A2000891F9A1FA11D680F791F8A1F911DA11D73
:101A30006A0F711D811D911DA11D20D009F46894AC
:101A40003F912AE0269F11243019305D3193DEF654
:101A5000CF010895462F4770405D4193B3E00FD00A
:101A6000C9F7F6CF462F4F70405D4A3318F0495DF5
:101A700031FD4052419302D0A9F7EACFB4E0A695D8
:101A80009795879577956795BA95C9F700976105FA
:101A9000710508959B01AC010A2E06945795479550
:101AA00037952795BA95C9F7620F731F841F951F45
:101AB000A01D08952F923F924F925F926F927F9256
:101AC0008F929F92AF92BF92CF92DF92EF92FF924E
:101AD0000F931F93CF93DF93CDB7DEB7CA1BDB0BFA
:101AE0000FB6F894DEBF0FBECDBF09942A8839889F
:101AF00048885F846E847D848C849B84AA84B984A6
:101B0000C884DF80EE80FD800C811B81AA81B981B1
:101B1000CE0FD11D0FB6F894DEBF0FBECDBFED01C5
:101B20000895F894FFCF3F065B4F666D7D077F6F8A
:101B3000777C395E7971000000006D01CD00FA00FC
:101B4000BA012B0109011D0100000000B304860445
:101B5000FF046F047F04A500700425752025752CF3
:101B60002025753A2575202D2D2025752C202575CD
:101B70002C2025752C2025752C202575000D0A009C
:107E0000112484B714BE81FFF0D085E080938100F7
:107E100082E08093C00088E18093C10086E0809377
:107E2000C20080E18093C4008EE0C9D0259A86E02C
:107E300020E33CEF91E0309385002093840096BBD3
:107E4000B09BFECF1D9AA8958150A9F7CC24DD24C4
:107E500088248394B5E0AB2EA1E19A2EF3E0BF2EE7
:107E6000A2D0813461F49FD0082FAFD0023811F036
:107E7000013811F484E001C083E08DD089C08234E0
:107E800011F484E103C0853419F485E0A6D080C0E4
:107E9000853579F488D0E82EFF2485D0082F10E0AE
:107EA000102F00270E291F29000F111F8ED06801E7
:107EB0006FC0863521F484E090D080E0DECF843638
:107EC00009F040C070D06FD0082F6DD080E0C81688
:107ED00080E7D80618F4F601B7BEE895C0E0D1E017
:107EE00062D089930C17E1F7F0E0CF16F0E7DF06D8
:107EF00018F0F601B7BEE89568D007B600FCFDCFD4
:107F0000A601A0E0B1E02C9130E011968C91119780
:107F100090E0982F8827822B932B1296FA010C0160
:107F200087BEE89511244E5F5F4FF1E0A038BF0790
:107F300051F7F601A7BEE89507B600FCFDCF97BE46
:107F4000E89526C08437B1F42ED02DD0F82E2BD052
:107F50003CD0F601EF2C8F010F5F1F4F84911BD097
:107F6000EA94F801C1F70894C11CD11CFA94CF0C13
:107F7000D11C0EC0853739F428D08EE10CD085E9AC
:107F80000AD08FE07ACF813511F488E018D01DD067
:107F900080E101D065CF982F8091C00085FFFCCF94
:107FA0009093C60008958091C00087FFFCCF809118
:107FB000C00084FD01C0A8958091C6000895E0E648
:107FC000F0E098E1908380830895EDDF803219F02E
:107FD00088E0F5DFFFCF84E1DECF1F93182FE3DFCA
:107FE0001150E9F7F2DF1F91089580E0E8DFEE27F6
:047FF000FF270994CA
:027FFE00040479
:00000001FF
