:020000040000FA
:100000000C946A000C9492000C9492000C94920050
:100010000C9492000C9492000C9492000C94920018
:100020000C9492000C9492000C9492000C94920008
:100030000C9492000C9492000C9492000C949200F8
:100040000C9430070C9492000C94CF090C94F30993
:100050000C9492000C9492000C9492000C949200D8
:100060000C94BF050C9492001F1C1F1E1F1E1F1F07
:100070001E1F1E1F00000000240027002A00000091
:100080000000250028002B000000000023002600AF
:10009000290004040404040404040202020202020B
:1000A000030303030303010204081020408001023C
:1000B00004081020010204081020000000080002BB
:1000C0000100000304070000000000000000B01061
:1000D000B210B41011241FBECFEFD8E0DEBFCDBFE9
:1000E00011E0A0E0B1E0EEE6F2E202C005900D9270
:1000F000A03EB107D9F723E0A0EEB1E001C01D9208
:10010000AF36B207E1F710E0CAE6D0E004C02197AD
:10011000FE010E942F11C736D107C9F70E94B61001
:100120000C9435110C940000CF92DF92EF92FF9265
:100130001F93CF93DF9300D000D0CDB7DEB76C0113
:10014000162F68EE73E00E94DF10862F0E94AB0F1F
:100150008983C60164E670E00E94DF10CB012AE0CB
:10016000E22EF12CB7010E94DF100E94AB0F8A83B0
:10017000C601B7010E94DF10D82ECB01B7010E9443
:10018000DF100E94AB0F8B838D2D0E94AB0F8C83F1
:10019000143038F4E1E0F0E0EC0FFD1FE10FF11D49
:1001A0001082CE0101960E94B20F0F900F900F9017
:1001B0000F90DF91CF911F91FF90EF90DF90CF9044
:1001C00008954F925F926F927F928F929F92AF921B
:1001D000BF92CF92DF92EF92FF920F931F93CF9334
:1001E000DF9300D000D0CDB7DEB78C0168EE73E0AE
:1001F0000E94DF106983C80164E670E00E94DF108E
:10020000CB012AE030E0B9010E94DF108A83C801E7
:10021000B9010E94DF10482FCB01B9010E94DF1005
:100220008B834C8360E0C8010E9494000E947A078F
:100230004B015C01E12CF12C24E6722E38EEC32E2A
:1002400033E0D32E4AE0642E5524539486E00E9476
:10025000BF08892B59F4F39468EC70E080E090E0DB
:100260000E94AB0723E02F1508F4F12C85E00E94D3
:10027000BF08892B09F04CC068EC70E080E090E08A
:100280000E94AB070F2D10E0E1E0F0E0EC0FFD1F46
:10029000E00FF11F40804394408284E391E00E948C
:1002A0000C0F842D0E949C0E89E0841518F08B8120
:1002B000863038F0E1E0F0E0EC0FFD1FE00FF11FB9
:1002C00010828981833008F019828981823021F47B
:1002D0009A81943008F01A829A818C9D80018D9DBC
:1002E000100D1124979D000D111D11248B81869DE9
:1002F000000D111D11248C81080F111D81E491E066
:100300000E940C0FC8010E94180FC8010E94B10E74
:100310000E947A07681979098A099B09653F71402B
:100320008105910558F0E5246FEF09F06F2DC801A4
:100330000E9494000E947A074B015C0184E00E94B5
:10034000BF08892B09F082CF6CE271E080E090E079
:100350000E94AB0780E591E00E940C0FC8010E944B
:10036000180F89819AE0D92EEA80F12C8D9DE00C3E
:10037000F11C1124C7010E94180F8B810C8110E021
:100380008D9D000D111D1124C8010E94180F24E637
:100390002E9DC0012F9D900D1124080F191FC8011B
:1003A0000E94180FC8010F900F900F900F90DF91CF
:1003B000CF911F910F91FF90EF90DF90CF90BF9062
:1003C000AF909F908F907F906F905F904F90089527
:1003D0000F931F93CF93DF9300D000D000D0CDB701
:1003E000DEB78C018BE591E00E940C0FC8010E94E2
:1003F000E10064E670E00E94DF10482FCE01019614
:100400000E94310BCE0101960E943B0B83E691E0E6
:100410000E940C0F26960FB6F894DEBF0FBECDBF1C
:10042000DF91CF911F910F910895CF93DF93CDB7B7
:10043000DEB72C970FB6F894DEBF0FBECDBF64E6D3
:1004400070E00E94DF10482FCE0107960E94310B0A
:10045000BE01695F7F4FCE0101960E944D04CE011F
:1004600001960E94F50A87E691E00E940C0F2C96F7
:100470000FB6F894DEBF0FBECDBFDF91CF910895C8
:100480000C94B10E61E08AE00C9490080E945C101C
:100490000E94CD0A62E086E00E94260862E085E0C4
:1004A0000E94260862E084E00E94260861E089E05C
:1004B0000E94260860E089E00E94900861E08AE0DE
:1004C0000E9426088AE00E94BF0821E0009709F0F8
:1004D00020E02093F201892B41F061E08AE00E9444
:1004E000260860E08AE00E9490080E94E90A0C94C5
:1004F000ED0AAF92BF92CF92DF92EF92FF920F93ED
:100500001F93CF93DF9300D000D000D0CDB7DEB7DC
:10051000CE0101960E94000C8C810D8110E024E632
:10052000829F000D111D1124C8010E94400286E027
:100530000E94BF08892B09F08CC0FF24F39480919E
:10054000F201882309F495C082E791E00E940C0F24
:100550008091F3019091F401A091F501B091F60121
:10056000892B8A2B8B2B51F40E947A076093F3011D
:100570007093F4018093F5019093F6010E947A073D
:100580000091F3011091F4012091F5013091F601F1
:100590005B016C01A01AB10AC20AD30A9601850157
:1005A0000093FB011093FC012093FD013093FE01A9
:1005B0000E94C10A6091F3017091F4018091F501EC
:1005C0009091F6010E94C10A6091FB017091FC01BB
:1005D0008091FD019091FE010E94C10A8091FB0172
:1005E0009091FC01A091FD01B091FE0181369A4EDF
:1005F000A105B10570F00E94290B8DE791E00E94E2
:100600000C0F1092F3011092F4011092F501109268
:10061000F601FF2009F4A0C068EC70E080E090E0F3
:100620000E94AB070E94290B85E891E00E940C0F05
:1006300026960FB6F894DEBF0FBECDBFDF91CF91E7
:100640001F910F91FF90EF90DF90CF90BF90AF90F0
:10065000089585E00E94BF08892B09F46ECF84E0DD
:100660000E94BF08FF24F394892B09F468CFF12C72
:1006700066CF0E94B40A811167CF0E947A07C090AA
:10068000F301D090F401E090F501F090F6016C19BF
:100690007D098E099F096093FB017093FC01809393
:1006A000FD019093FE010E94BD0A6091FB017091D3
:1006B000FC018091FD019091FE010E94C10A809190
:1006C000FB019091FC01A091FD01B091FE01893BDD
:1006D0009B40A105B10530F083E991E00E940C0F29
:1006E0000E94420284E00E94BF08892B09F071C079
:1006F00068EC70E080E090E00E94AB0781EA91E056
:100700000E940C0FC80101970E94E1000E9415028F
:100710001092F3011092F4011092F5011092F6017B
:100720000E947A075B016C0188279927DC018A19EE
:100730009B09AC09BD098093FB019093FC01A09338
:10074000FD01B093FE01813C944DA140B10508F438
:100750006FCF0E9442026CCF61E089E00E94900856
:100760006AEF70E080E090E00E94AB0760E089E013
:100770000E94900862E370E080E090E00E94AB0786
:1007800061E089E00E94900868EC70E080E090E011
:100790000E94AB0760E089E00E94900862E370E08D
:1007A00080E090E00E94AB0761E089E00E94900841
:1007B00068EC70E080E090E00E94AB0760E089E0C8
:1007C0000E9490086CE271E080E090E00E94AB072C
:1007D0002FCF86E00E94BF08892B81F51092F3018C
:1007E0001092F4011092F5011092F60168EC70E09D
:1007F00080E090E00E94AB078AEB91E00E940C0F32
:10080000C8010E94E8011092F3011092F4011092C5
:10081000F5011092F6010E947A075B016C018827AE
:100820009927DC018A199B09AC09BD098093FB015A
:100830009093FC01A093FD01B093FE010E947A0702
:10084000F7CEDC0150E0E8E6F0E081E0861730F416
:100850009491490F511D8F5F3196F8CF633038F076
:10086000CD0183709927892B11F44F5F5F4F9D0154
:100870002D5F3F4F36952795369527956DE671E0AC
:10088000A69FC001A79F900DB69F900D11240197C0
:10089000820F931F840F951F0895FC01DB018C913B
:1008A000808311968C911197818312968C91129767
:1008B000828313968C911397838314968C9114974B
:1008C000848315968C9185830895FC0180814281F3
:1008D000618190E00E942104069667E070E00E942A
:1008E000CB100895EF92FF920F931F93CF93DF9356
:1008F000EC0188814A81698190E00E9421049C0179
:10090000A8E1B0E00E9415112B817B018C01E20E61
:10091000F11C011D111DA8019701ACE3B0E00E947C
:1009200024112C817B018C01E20EF11C011D111D93
:10093000A80197010E9424112D81620F711D811D54
:10094000911D60587C4B8249974CDF91CF911F914C
:100950000F91FF90EF90089590E080E00895CF937D
:10096000DF931F92CDB7DEB7698320914402222323
:10097000F9F020914302203258F021E030E0FC01F0
:100980003383228390E080E00F90DF91CF91089530
:1009900080914202E82FF0E0EE5DFD4F9981908357
:1009A0008F5F809342028093430281E090E0ECCF1E
:1009B00061E0CE0101960E946A0581E090E0E4CFFB
:1009C000CF93DF939B01EA0140914402442339F025
:1009D000AE010E942005CE01DF91CF9108956C2FCA
:1009E000C9010E946A05F7CF8091200290911F02F1
:1009F000891B990B089590911F02809120022FEF7F
:100A00003FEF981748F4E92FF0E0E150FE4F2081C6
:100A100030E09F5F90931F02C9010895E0911F028B
:100A200080912002E81730F4F0E0E150FE4F808121
:100A300090E008958FEF9FEF089508950895089529
:100A4000EF92FF920F931F93CF93DF937C01EB0103
:100A50008B01040F151FC017D10751F06991D70101
:100A6000ED91FC910190F081E02DC7010995F3CF44
:100A7000DF91CF911F910F91FF90EF900895109209
:100A8000550281E0809357021092580261E082E1A2
:100A90000E94900861E083E10E949008E9EBF0E099
:100AA00080818E7F808380818D7F808388E48093A6
:100AB000B80085E48093BC000895ECEBF0E0808101
:100AC0008A7B808360E082E10E94900860E083E19D
:100AD0000C9490082091A602260F3327331F213251
:100AE000310534F420915502243021F40C94F7069A
:100AF00081E0089582E0089585ED8093BC008091A7
:100B0000590290915A02A0915B02B0915C02079643
:100B1000A11DB11D23E0B695A795979587952A95B8
:100B2000D1F72091BC0024FD03C010925502089516
:100B30004091590250915A0260915B0270915C029F
:100B4000452B462B472B69F30097A105B10541F0D2
:100B500025E32A95F1F700000197A109B109E1CF3A
:100B60000C942C0785EC8093BC00109255020895DC
:100B700091E090935D0281110C94110708951F92EA
:100B80000F920FB60F9211242F933F934F935F93C1
:100B90006F937F938F939F93AF93BF93EF93FF9345
:100BA0008091B900887F803609F44EC008F041C0BA
:100BB000883209F4B5C028F5803109F4A9C0B8F429
:100BC000882309F411C1883009F4A2C0FF91EF9184
:100BD000BF91AF919F918F917F916F915F914F9155
:100BE0003F912F910F900FBE0F901F901895883155
:100BF00009F496C0803251F78093C8020E947C05A8
:100C0000E5CF803409F4AEC048F48033A9F38833CB
:100C1000E9F68093C8020E94B205D8CF803509F466
:100C200095C0883509F4A8C0883481F60E947C05F7
:100C3000CDCF883909F468C068F5883729F068F4A1
:100C4000883611F0803711F683E0809355021092B8
:100C5000C70285EC8093BC00B9CF883809F454C032
:100C6000803919F0803809F0B1CF8091C702803205
:100C700008F04AC0E091C70281E08E0F8093C7025E
:100C80008091BB00F0E0E955FD4F808385EC8093B7
:100C9000BC009CCF803B39F0E0F4803A09F485C079
:100CA000883A09F093CF84E0809355021092A50210
:100CB0001092A602E0915F02F09160020995809186
:100CC000A60281110FC081E08093A60210928502D6
:100CD00009C0803C09F482C0883C09F47FC0883B8D
:100CE00009F074CFE091A50281E08E0F8093A502F8
:100CF000F0E0EB57FD4F80818093BB009091A502FF
:100D00008091A6029817A0F185E88093BC005ECF81
:100D1000809156028093BB0085EC8093BC0056CF37
:100D20009091830280918402981790F5E09183025C
:100D300081E08E0F80938302F0E0ED59FD4F8081BA
:100D40008093BB0085EC8093BC0040CFE091830290
:100D500081E08E0F809383028091BB00F0E0ED591B
:100D6000FD4F80839091830280918402981760F6F2
:100D700085EC8093BC002ACFE091830281E08E0F46
:100D8000809383028091BB00F0E0ED59FD4F80839A
:100D90008091570281114ACF81E08093580284EA02
:100DA0008093BC001092550211CF0E94B205809131
:100DB000C702803230F4E091C702F0E0E955FD4F00
:100DC00010826091C70270E0E0916102F0916202CE
:100DD00087EA92E009951092C702F8CE85EC8093DD
:100DE000BC0010925502F2CE1092C8021FCF30E024
:100DF00020E0261738F08091A602680F6093A602C3
:100E000080E00895E091A602DC014D91CD01D90169
:100E1000AB57BD4FEA0FFB2FF11D40832F5F3F4FB4
:100E2000E8CFEF92FF920F931F93CF93DF93C8EB1E
:100E3000D0E0F8800AEB10E0F801E0800E945D0548
:100E40000E943F05F801E082F882DF91CF911F9167
:100E50000F91FF90EF90089580915E020C94B80579
:100E60001F920F920FB60F9211242F933F938F93DF
:100E70009F93AF93BF938091CD029091CE02A091AA
:100E8000CF02B091D0023091D10223E0230F2D3751
:100E900058F50196A11DB11D2093D1028093CD027A
:100EA0009093CE02A093CF02B093D0028091C9025A
:100EB0009091CA02A091CB02B091CC020196A11DE3
:100EC000B11D8093C9029093CA02A093CB02B09344
:100ED000CC02BF91AF919F918F913F912F910F9035
:100EE0000FBE0F901F90189526E8230F0296A11DA4
:100EF000B11DD2CF2FB7F8946091CD027091CE0280
:100F00008091CF029091D0022FBF08953FB7F894FF
:100F10008091C9029091CA02A091CB02B091CC02FB
:100F200026B5A89B05C02F3F19F00196A11DB11D44
:100F30003FBFBA2FA92F982F8827BC01CD01620F80
:100F4000711D811D911D42E0660F771F881F991F3B
:100F50004A95D1F708958F929F92AF92BF92CF9208
:100F6000DF92EF92FF924B015C010E9486076B01BA
:100F70007C010E9486076C197D098E099F09683ED5
:100F8000734081059105A8F321E0821A9108A10818
:100F9000B10888EEC80E83E0D81EE11CF11C811454
:100FA0009104A104B10429F7FF90EF90DF90CF9056
:100FB000BF90AF909F908F9008958230910510F070
:100FC0000C941E080895789484B5826084BD84B51D
:100FD000816084BD85B5826085BD85B5816085BD34
:100FE000EEE6F0E0808181608083E1E8F0E010824D
:100FF000808182608083808181608083E0E8F0E08E
:10100000808181608083E1EBF0E080818460808377
:10101000E0EBF0E0808181608083EAE7F0E08081AE
:10102000846080838081826080838081816080830E
:101030008081806880831092C1000895880F991F75
:10104000880F991F05970197F1F70895CF93DF93C4
:1010500090E0FC01EA55FF4F24918E569F4FFC0112
:1010600084918823C9F090E0880F991FFC01EC5807
:10107000FF4FA591B491FC01E258FF4FC591D49167
:1010800061110DC09FB7F8948C91209582238C93A9
:101090008881282328839FBFDF91CF9108956230F4
:1010A00061F49FB7F8943C91822F809583238C93B1
:1010B000E8812E2B28839FBFEFCF8FB7F894EC9158
:1010C0002E2B2C938FBFE8CF833091F028F4813002
:1010D000A9F08230A9F008958730B1F08830D1F0BE
:1010E0008430E9F4809180008F7D809380000895A2
:1010F000809180008F778093800008950C94E80899
:1011000084B58F7D84BD08958091B0008F778093E2
:10111000B00008958091B0008F7D8093B000089555
:101120001F93CF93DF93282F30E0F901E654FF4F50
:101130008491F901EA55FF4FD491F901EE56FF4F22
:10114000C491CC23A9F0162F81110E946408EC2FC2
:10115000F0E0EE0FFF1FE258FF4FA591B4918FB75B
:10116000F894EC91111108C0D095DE23DC938FBF69
:10117000DF91CF911F910895DE2BDC93F8CFCF93B1
:10118000DF93282F30E0F901E654FF4F8491F901F5
:10119000EA55FF4FD491F901EE56FF4FC491CC238D
:1011A000A1F081110E946408EC2FF0E0EE0FFF1F08
:1011B000E857FF4FA591B491EC91ED2381E090E0C9
:1011C00009F480E0DF91CF91089580E090E0FACFBC
:1011D00084B58F7784BD089580E090E0892B11F06D
:1011E0000C94A4090895FC01A48DA80FB92FB11D7A
:1011F000A35ABF4F2C91848D90E001968F7399274D
:10120000848FA689B7892C93A089B1898C9183702A
:1012100080648C93938D848D981303C0CF010C94BC
:10122000AA090895FC01918D228D892F90E0805CA0
:101230009F4F821B91098F7399270895FC01918D0F
:10124000828D981731F0828DE80FF11D858D90E029
:1012500008958FEF9FEF0895FC01918D828D98176F
:1012600061F0A28DAE0FBF2FB11D5D968C91928D56
:101270009F5F9F73928F90E008958FEF9FEF089587
:10128000FC01538D448D252F30E0842F90E0821B8C
:10129000930B541710F0CF96089501970895FC0111
:1012A000208D21110C94B2090895EF92FF920F93B3
:1012B0001F93CF93DF93EC0181E0888F9B8D8C8D02
:1012C00098131AC0E889F989808185FF15C09FB7F6
:1012D000F894EE89FF896083E889F98980818370B9
:1012E000806480839FBF81E090E0DF91CF911F9168
:1012F0000F91FF90EF900895F62E0B8D10E00F5F89
:101300001F4F0F731127E02E8C8D8E110CC00FB65E
:1013100007FCFACFE889F989808185FFF5CFCE01F6
:101320000E94F308F1CFEB8DEC0FFD2FF11DE35A76
:10133000FF4FF0829FB7F8940B8FEA89FB89808179
:10134000806280839FBFCFCF0E94190A81110C94C5
:1013500000000895DC015296ED91FC9180818F7D13
:1013600080830895CF93DF93EC01AA89BB89E88934
:10137000F9898C9185FD03C0808186FD0DC00FB673
:1013800007FCF7CF8C9185FFF2CF808185FFEDCFF1
:10139000CE010E94F308E9CFDF91CF9108951F920B
:1013A0000F920FB60F9211242F933F934F935F9399
:1013B0006F937F938F939F93AF93BF93EF93FF931D
:1013C0000E94520AFF91EF91BF91AF919F918F912F
:1013D0007F916F915F914F913F912F910F900FBE31
:1013E0000F901F9018951F920F920FB60F92112415
:1013F0002F933F934F935F936F937F938F939F931D
:10140000AF93BF93EF93FF9382ED92E00E94F308B6
:10141000FF91EF91BF91AF919F918F917F916F91CC
:101420005F914F913F912F910F900FBE0F901F90A2
:10143000189582ED92E00E94120921E0892B09F4AF
:1014400020E0822F0895AF92BF92CF92DF92EF9269
:10145000FF920F931F93CF93DF936C017B018B015E
:10146000040F151FEB015E01AE18BF08C017D107AE
:1014700059F06991D601ED91FC910190F081E02D38
:10148000C6010995892B79F7C501DF91CF911F918D
:101490000F91FF90EF90DF90CF90BF90AF900895A5
:1014A00008950895E091E202F091E302808182FFC5
:1014B0000C94600AE091E802F091E90280810895BD
:1014C000E091E802F091E90290818091EB028F5F58
:1014D0008F732091EC02821741F0E091EB02F0E073
:1014E000EE52FD4F958F8093EB020895E2EDF2E00E
:1014F0001382128288EE93E0A0E0B0E084839583AB
:10150000A683B78386E291E09183808385EC90E0A7
:101510009587848784EC90E09787868780EC90E0BD
:10152000918B808B81EC90E0938B828B82EC90E0AE
:10153000958B848B86EC90E0978B868B118E128E28
:10154000138E148E0895E9E4F2E01382128288EE7D
:1015500093E0A0E0B0E084839583A683B78384E121
:1015600091E09183808308958FE00E94D30B982FA0
:10157000937081E009F480E0089582ED91E00C948D
:10158000930FCF93DF930E94AE0EEC010E949A0F4F
:101590008C0F9D1FDF91CF91089510921F02109222
:1015A000200210924202109243020E943F050E94C4
:1015B000DB0A0C94E20A8FE195E09093600280933D
:1015C0005F0208958EE195E090936202809361023C
:1015D00008958FE08093EF0108958EE00E94D30B71
:1015E000682F64608EE00C94E90B0C94F70A0F935B
:1015F0001F93CF938C01FC018481CAE06C2F0E9461
:10160000BF108295807F682F690F8BE00E94E90BE5
:10161000F80183816C2F0E94BF108295807F682F14
:10162000690F8CE00E94E90B8DE00E94D30B682FBC
:1016300060688DE00E94E90B8EE00E94D30B682F5A
:1016400062608EE00E94E90BCF911F910F910C9484
:10165000290B8FE00E94D30B682F6C7F8FE00C94D6
:10166000E90BFC0185E1808397E0918382836383AA
:10167000448315820895EF92FF920F931F93CF93A7
:10168000DF9300D000D000D0CDB7DEB78C01FC01D5
:1016900085819CE3E92E6E2D0E94BF10892F2AE0E0
:1016A000F22E6F2D0E94BF108295807F682F690FE8
:1016B00080E00E94E90BF80184816E2D0E94BF102A
:1016C000892F6F2D0E94BF108295807F682F690F30
:1016D00081E00E94E90BF801838168E10E94BF105C
:1016E000892F6F2D0E94BF108295807F682F690F10
:1016F00082E00E94E90BC8010E946504682F83E024
:101700000E94E90BF80182816F2D0E94BF10829523
:10171000807F682F690F84E00E94E90BF8018181C6
:101720006F2D0E94BF108295807F682F690F85E022
:101730000E94E90BF80180816F2D0E94BF108295F5
:10174000807F682F690F86E00E94E90B8FE00E947E
:10175000D30B682F6F778FE00E94E90B8EE00E9419
:10176000D30B682F6F778EE00E94E90BCE010196B4
:101770000E94000CCE0101960E9472046093E10168
:101780007093E2018093E3019093E40126960FB6F3
:10179000F894DEBF0FBECDBFDF91CF911F910F91A7
:1017A000FF90EF900895CF93C82F0E949E0C6C2F4E
:1017B00089E492E00E94AF040E94900C8093E001C3
:1017C00081E00E94930C89E492E00E94FB04CF9197
:1017D0000895CF93DF93D82FC62F0E949E0C6D2FB4
:1017E00089E492E00E94AF046C2F89E492E00E94A9
:1017F000AF040E94900C8093E001DF91CF91089597
:101800001F93CF93DF93EC010E949E0C60E089E46C
:1018100092E00E94AF040E94900C8093E00187E068
:101820000E94930C89E492E00E94F404079709F067
:1018300058C089E492E00E94FB04982F929597701B
:101840001AE08F70919F800D11248093E50189E447
:1018500092E00E94FB04982F929597708F70919F51
:10186000800D11248093E60189E492E00E94FB043C
:10187000982F929593708F70919F800D1124809373
:10188000E70189E492E00E94FB0489E492E00E946F
:10189000FB04982F929593708F70919F800D112467
:1018A0008093E80189E492E00E94FB0484FB99277D
:1018B00090F98F70919F800D11248093E90189E444
:1018C00092E00E94FB04982F92959F708F70919FD9
:1018D000800D112490E08053984F9093EB018093FA
:1018E000EA012091E5013091E6014091E701509134
:1018F000E8016091E9018091EA019091EB01803D5E
:1019000077E0970710F0805D9740888369835A835A
:101910004B833C832D83CE01DF91CF911F9108959E
:1019200081E00C94A90C0C94950C0C94970C0E94DB
:10193000B80D10921F0280932002089581E08093D9
:10194000440288E6809321021092420210924302E0
:101950000895482F60914302809121020E94B70CA4
:1019600010924202109243021092440208958F9204
:101970009F92AF92BF92CF92DF92EF92FF921F930E
:10198000CF93DF93613208F04BC0142FD62FC82FAE
:101990000E9486076B017C0180915502811110C065
:1019A000412F6D2F8C2FDF91CF911F91FF90EF90E2
:1019B000DF90CF90BF90AF909F908F900C94120DBE
:1019C0008091590290915A02A0915B02B0915C0201
:1019D000892B8A2B8B2B01F30E948607809059025A
:1019E00090905A02A0905B02B0905C026C197D0945
:1019F0008E099F0986169706A806B90668F6809193
:101A00005E020E94B80585E0DF91CF911F91FF90A3
:101A1000EF90DF90CF90BF90AF909F908F90089500
:101A200081E0F2CFCF92DF92EF92FF920F931F935C
:101A300092E090935502409357029FEF9093C80213
:101A40001092830260938402E2E2F2E0A3E6B2E045
:101A500090E0691342C01092560290915602880F8E
:101A6000892B8093560280915802813009F056C02C
:101A7000109258020E9486076B017C0180915602E9
:101A80008093BB008091590290915A02A0915B0211
:101A9000B0915C02892B8A2B8B2B19F10E9486074F
:101AA0000091590210915A0220915B0230915C0220
:101AB0006C197D098E099F09061717072807390732
:101AC00080F480915E020E94B80585E01F910F911D
:101AD000FF90EF90DF90CF90089521912D939F5F1D
:101AE000B8CF8091BC0083FDC9CF85EC8093BC004A
:101AF0000E9486076B017C0180915502823091F033
:101B00008091C8028F3F71F18091C802803261F1EB
:101B10008091C802803351F184E0D8CF85EE809364
:101B2000BC00E6CF8091590290915A02A0915B02CD
:101B3000B0915C02892B8A2B8B2BF1F20E948607D5
:101B40000091590210915A0220915B0230915C027F
:101B50006C197D098E099F09061717072807390791
:101B600058F6AFCF80E0B2CF82E0B0CF83E0AECF07
:101B7000CF92DF92EF92FF920F931F93CF93813218
:101B8000B0F5C82F0E9486076B017C018091550239
:101B900081110AC08C2FCF911F910F91FF90EF9070
:101BA000DF90CF900C94000E8091590290915A02D0
:101BB000A0915B02B0915C02892B8A2B8B2B31F3B5
:101BC0000E9486070091590210915A0220915B02EF
:101BD00030915C026C197D098E099F090617170761
:101BE0002807390798F680915E020E94B80580E0C8
:101BF000CF911F910F91FF90EF90DF90CF900895BC
:101C0000CF92DF92EF92FF920F931F93CF93C82F43
:101C100081E080935502809357029FEF9093C80212
:101C2000109283029C0F90938402809356028091BD
:101C30005602806D8093560280915802813009F0DF
:101C400057C0109258020E9486076B017C01809158
:101C500056028093BB008091590290915A02A09144
:101C60005B02B0915C02892B8A2B8B2B09F10E94BD
:101C700086070091590210915A0220915B0230911F
:101C80005C026C197D098E099F0906171707280742
:101C9000390770F480915E020E94B805C0E08C2F75
:101CA000CF911F910F91FF90EF90DF90CF9008950B
:101CB0008091BC0083FDCBCF85EC8093BC000E945B
:101CC00086076B017C01809155028130A9F08091DB
:101CD00083028C1710F4C0918302A3E6B2E0EFEF09
:101CE000F1E080E08C17D9F29D9191938F5FFACF4C
:101CF00085EE8093BC00E3CF8091590290915A0207
:101D0000A0915B02B0915C02892B8A2B8B2BD9F2BC
:101D10000E9486070091590210915A0220915B029D
:101D200030915C026C197D098E099F09061717070F
:101D30002807390740F6AECFCF93DF930E94A80E55
:101D4000EC010E949A0F8C0F9D1FDF91CF91089597
:101D5000682F70E090E080E00C94AE0E4AE00C94A6
:101D6000530FBC018AE00C94B50EDF92EF92FF9204
:101D70000F931F93CF93DF9300D000D0CDB7DEB782
:101D8000FB0140E087FF02C0819541E08E010B5FBF
:101D90001F4F9E012F5F3F4F7901282F880F330B74
:101DA00080E4D82ECF01B9010E94CB10DC01A050F5
:101DB000BF4F9C91D8019E938D01811106C0EF2BDE
:101DC00021F4442311F0DC9240E0FB01E016F1061F
:101DD00049F7C7010E94FB0EC7010E94B20F0F9086
:101DE0000F900F900F90DF91CF911F910F91FF9067
:101DF000EF90DF900895AC014C5F5F4F2FEFFC0137
:101E00006191CF013197322F3078362B3083220FFA
:101E100084179507A1F70895CF93DF930E94930F3E
:101E2000EC010E949A0F8C0F9D1FDF91CF910895B6
:101E3000CF93DF930E94240FEC010E949A0F8C0F26
:101E40009D1FDF91CF910895BC01990F880B990BCD
:101E50000C942A0F97FD0C94300F4AE00C94530F0A
:101E6000CF92DF92EF92FF92CF93DF936B017C01D1
:101E70000E944E0FEC0166277727CB016C197D0974
:101E80008E099F094AE00E94530F8C0F9D1FDF911E
:101E9000CF91FF90EF90DF90CF9008956DE282EDAB
:101EA00092E00C9455098F929F92AF92BF920F933C
:101EB0001F93CF93DF93CDB7DEB7A1970FB6F894FA
:101EC000DEBF0FBECDBF19A2423008F44AE08E013A
:101ED0000F5D1F4F842E912CB12CA12CA5019401D4
:101EE0000E94F310E62FB901CA01EA30D4F4E05D94
:101EF000D801EE938D01232B242B252B79F7CD01CF
:101F00000E94930FA1960FB6F894DEBF0FBECDBF0F
:101F1000DF91CF911F910F91BF90AF909F908F90C5
:101F20000895E95CE5CF009711F00C949E0F90E0C6
:101F300080E008958CED91E00C949E0FFC010190DF
:101F40000020E9F73197AF01481B590BBC0182ED26
:101F500092E00C94230A8F70E82FF0E0E050FF4FDE
:101F6000808108950F931F93CF93DF938C010E947C
:101F7000DC0F80E40E94E30F0E943E100E94DC0F01
:101F800080EC0E94E30FE8010C5F1F4F89910E94D3
:101F9000E30FC017D107D1F70E943E100E94DC0F5B
:101FA0008091EF018F7080580E94E30FDF91CF91F5
:101FB0001F910F910C943E1061E08091EE010E9400
:101FC00026080C9456100F931F93CF93DF93D82FAE
:101FD000C8E061E08091ED010E9426080E94561041
:101FE0000D2F10E0D0FF44C060E08091EE010E9410
:101FF00026080E94561060E08091ED010E9426089C
:102000000E94561015950795D02FC15011F761E029
:102010008091ED010E94260860E08091EE010E940F
:1020200026080E94561060E08091ED010E9426086B
:102030000E9456108091EE010E94BF08C82F8111A6
:1020400005C061E08091EE010E9426080E945610B2
:1020500061E08091ED010E9426080E94561081E007
:10206000C11101C080E0DF91CF911F910F910895C0
:1020700061E08091EE010E942608BBCFCF93DF93F1
:10208000CDEED1E061E089810E9426080E945610C1
:1020900060E088810E9426080E94561060E08981D5
:1020A0000E942608DF91CF910C9456108091F00188
:1020B0009091F1010C94DD070C945E10E2EDF2E0DA
:1020C000A089B18982E08C93A485B5851C92A685F0
:1020D000B78580E18C93108EA489B58986E08C93B6
:1020E000A289B3898C9180618C93A289B3898C91E8
:1020F00088608C93A289B3898C9180688C930288C4
:10210000F389E02D80818F7D808308950E948A105D
:102110000C949210E0EEF1E0108211821282138290
:1021200014820895CF93DF93CDEED1E082E08883CF
:1021300083E0898384E690E09C838B8360E082E087
:102140000E94260860E089810E94260860E088815C
:102150000E94900860E08981DF91CF910C949008F3
:102160000C9486100C94A30A0C94760A0E94E30740
:102170000E9446020E9479020E94EC08FBCF991B44
:1021800079E004C0991F961708F0961B881F7A956E
:10219000C9F780950895AA1BBB1B51E107C0AA1F70
:1021A000BB1FA617B70710F0A61BB70B881F991FF8
:1021B0005A95A9F780959095BC01CD01089597FB9C
:1021C000072E16F4009407D077FD09D00E94CB109B
:1021D00007FC05D03EF4909581959F4F089570952A
:1021E00061957F4F0895A1E21A2EAA1BBB1BFD012A
:1021F0000DC0AA1FBB1FEE1FFF1FA217B307E407E6
:10220000F50720F0A21BB30BE40BF50B661F771F3D
:10221000881F991F1A9469F760957095809590951D
:102220009B01AC01BD01CF010895A29FB001B39FF6
:10223000C001A39F700D811D1124911DB29F700DCF
:10224000811D1124911D08950E941511A59F900DC7
:10225000B49F900DA49F800D911D11240895EE0F41
:10226000FF1F0590F491E02D0994F894FFCF3F06ED
:102270005B4F666D7D077F6F777C395E79710000FB
:102280000000AF04E004AC041D05F404FB040E05DB
:10229000000000005509230A40094F0912092C09C2
:1022A0001E096E65772076616C75653D2020006E95
:1022B000657720646973706C61793D2020006F6BD5
:1022C00020636C69636B656400656E746572656438
:1022D0000073657400416C61726D20736574210038
:1022E000416C61726D2054696D650053746F70703C
:1022F000656400416C61726D20636C656172656438
:10230000005368757474696E6720446F776E00536C
:10231000657420416C61726D206D6F64652061632E
:1023200074697661746564005365742074696D65C1
:10233000206D6F6465206163746976617465640003
:0E2340007370616E2031203D20000D0A0000F8
:107E0000112484B714BE81FFF0D085E080938100F7
:107E100082E08093C00088E18093C10086E0809377
:107E2000C20080E18093C4008EE0C9D0259A86E02C
:107E300020E33CEF91E0309385002093840096BBD3
:107E4000B09BFECF1D9AA8958150A9F7CC24DD24C4
:107E500088248394B5E0AB2EA1E19A2EF3E0BF2EE7
:107E6000A2D0813461F49FD0082FAFD0023811F036
:107E7000013811F484E001C083E08DD089C08234E0
:107E800011F484E103C0853419F485E0A6D080C0E4
:107E9000853579F488D0E82EFF2485D0082F10E0AE
:107EA000102F00270E291F29000F111F8ED06801E7
:107EB0006FC0863521F484E090D080E0DECF843638
:107EC00009F040C070D06FD0082F6DD080E0C81688
:107ED00080E7D80618F4F601B7BEE895C0E0D1E017
:107EE00062D089930C17E1F7F0E0CF16F0E7DF06D8
:107EF00018F0F601B7BEE89568D007B600FCFDCFD4
:107F0000A601A0E0B1E02C9130E011968C91119780
:107F100090E0982F8827822B932B1296FA010C0160
:107F200087BEE89511244E5F5F4FF1E0A038BF0790
:107F300051F7F601A7BEE89507B600FCFDCF97BE46
:107F4000E89526C08437B1F42ED02DD0F82E2BD052
:107F50003CD0F601EF2C8F010F5F1F4F84911BD097
:107F6000EA94F801C1F70894C11CD11CFA94CF0C13
:107F7000D11C0EC0853739F428D08EE10CD085E9AC
:107F80000AD08FE07ACF813511F488E018D01DD067
:107F900080E101D065CF982F8091C00085FFFCCF94
:107FA0009093C60008958091C00087FFFCCF809118
:107FB000C00084FD01C0A8958091C6000895E0E648
:107FC000F0E098E1908380830895EDDF803219F02E
:107FD00088E0F5DFFFCF84E1DECF1F93182FE3DFCA
:107FE0001150E9F7F2DF1F91089580E0E8DFEE27F6
:047FF000FF270994CA
:027FFE00040479
:00000001FF
